:020000041000EA
:10000000F2EB88710419001024190010A4000010EC
:1000100090A31AE7D3DEFFFF420101114403000061
:100020003600001000200820FF040000841F00009C
:10003000793512AB69A897110010938161041721DB
:100040000810130121FC170500101305B5477310A4
:100050005530732540F125ED170700001307C7043D
:100060000C4391C55043144731070D28D5BF970560
:100070000010938565601386C18121A023A005002F
:100080009105E39DC5FEEF1060134520EF10A0120F
:100090000290FDBF884108C291051106E36CD6FEAF
:1000A0008280010024190010000000207406002046
:1000B000981F00100000082000000820981F001062
:1000C0000010082000100820000000008280216538
:1000D0001305C5DF0285411122C437040020834780
:1000E000847F06C699EF9307000089CB371500106F
:1000F0001305455A97000000E70000008547230CD0
:10010000F47EB2402244410182809307000089CFEF
:10011000B7050020371500109385C57F1305455A94
:10012000170300006700000082805D71914505455E
:100130004EDE52DC56DA5AD85ED662D46ECE86C611
:10014000A2C4A6C2CAC066D26AD0CD20B72700100A
:10015000B71B001003ABC78F371C0010B729001066
:1001600093878B5A130CCC6D3EC693894981B78D0A
:100170000A40930A0004054AB7840A4037940A40AB
:10018000B24BB1043104628DB1474179B5A09700FB
:100190000010E780C020AA855A8597000010E780EC
:1001A000A0F997000010E780001A23A00D0023A4F7
:1001B0000D0023A60D003345050823A8AD0023A29A
:1001C0005D0123A04D01944093571500C207B58FE0
:1001D000B3F7270166851CC0EF00B0129C401305E1
:1001E0002003110DB3F727011CC0EF009011638AA3
:1001F000A90383A70B00910B03250D00B3C7F720BC
:10020000939C170049F59C406685110DB3F72701B3
:100210001CC0EF00100F13052003EF00900EE39AAF
:10022000A9FD1305803EEF00D00DB9B7B787034095
:100230009107B347F52098438566BE961347070498
:100240001377070C3786024098C23365C5200D67C7
:10025000BA974CC11307001098C3828039713723B5
:10026000001022CC2A841305438106CE2ED232D42C
:1002700036D63AD83EDA42DC46DEEF10E02001CC3A
:100280004C1022852EC6EF00B06D372500101305E7
:100290004582EF10601F0545EF00B071F376043022
:1002A000371700201307F781131837003318002978
:1002B000719BAF280745B3F80801E39C08FE0F00C7
:1002C000300313D735003A950347050093F77500BF
:1002D000B317F0283378F700631108025D8F23000D
:1002E000E5000F003003B717002093874781A385EF
:1002F0000700A18A73A0063082804111328506C6AC
:10030000B13F3707002003458766DD469307150098
:1003100093F7F70F63F3F600C1472304F766828073
:10032000B7160020938646818147130600020F000E
:1003300030033387F600230007008507E399C7FEE3
:10034000828081463D481D459305400393F7360062
:100350008A073317F80013D626004207518F7330EF
:1003600037BEB317F500C207D18F73A037BE85061D
:10037000E39EB6FC82809357550086073315A0286C
:10038000C176E98E138717004205558F5D8D91C99F
:10039000733025BE733027BE732005BE732007BEA1
:1003A0008280733005BE733007BE8280411126C241
:1003B00006C622C44AC0AE8473790430B717002041
:1003C0009387D781139737003317E028F19BAFA6A7
:1003D000E744F98EEDFE0F003003F327503013058C
:1003E0004503F19BB347F5209843B7070020938757
:1003F0004766131425006306F7006384E500EF00E9
:10040000D039F3275030F19BA29784C30F003003FB
:100410000F003003B717002093874781A38407009C
:100420009377890073A00730B24022449244024976
:1004300041018280B717002093874781AE971CC186
:100440008280011122CC26CA37040020B704002084
:1004500006CE9307C4669384446763F897024AC83C
:100460004EC61304C466FD591309F00F1C409DC30A
:10047000493DAA8522857D3F231224010F003003C8
:100480002104E36594FE4249B249F2406244D244F9
:1004900005618280BD35AA852285693F230234012A
:1004A0000F0030032104E36394FCF1BFB716002072
:1004B00083A7C68773770430139637003316C02896
:1004C000F19BAFA5C744F18DEDFD0F00300383A76D
:1004D000C6870F003003238007009377870073A03F
:1004E0000730332010000145814582805D7186C64A
:1004F000A2C4A6C2CAC04EDE52DC56DA5AD85ED6B4
:1005000062D466D26AD06ECEF32750BE139707012D
:100510006349073293D9470093F7F91F898393F909
:100520003900331A302937090B40639707343717DE
:100530000020B3C737211307C785B3C7E72083AAB5
:1005400007008D6793874704CA97B3C92921138B86
:100550008A0023A047017D54FD54039D8A00232E69
:10056000490363520D0883D74A009397576063DDB0
:10057000071483C76A006395071E83968A0063C3C6
:10058000060403A74A01B3A6D620FD57B3E6E6202A
:1005900083AB860003ACC6006382FB2A0327890273
:1005A00083A70901B386EB40998F63F4F60023A873
:1005B00079014A85EF00A07B63C68501E31FBCF883
:1005C000E37D75F933201000B64026449644064971
:1005D000F259625AD25A425BB25B225C925C025D73
:1005E000F24D6161828083A74A01B32BAD214A8518
:1005F000B3EBFB2003ACCB0083AC8B008D2FE3C4AB
:1006000085F76309BC1C634B0C1C03A70B01B707E0
:1006100000109387C74E83A54B016305F72483978A
:100620008A0003D52B00C2075D8D02972E87AA8D05
:10063000B3E7ED006384071A635B0720B386BC4110
:10064000B3BCDC00B307EC40B387974103970B00C2
:1006500023A4DB0023A6FB00E34707F003A54A0120
:100660003328E720131617003368A8208325C80015
:1006700083288800E3C9B7EE6394F500E3E516EF3D
:100680002394EA0013888A0031A0832886004C4610
:10069000131617003A963366A62063CDB700638120
:1006A000F51E0317060032883326E7203366A6209E
:1006B000E35D07FC2390EB002310A80183D74A00D9
:1006C00093975760E3C707EA83A70A01737704305B
:1006D00093963700B316D028F19B2FA6D744758E7A
:1006E0006DFE0F00300383D84A00FD572392FA00B5
:1006F0009398586083A70A010F00300323800700F6
:100700009377870073A00730E3C508E603A54A0185
:1007100003978A0033A818213368A8200323880090
:100720000326C800DA85635A070039A8638CC60E11
:1007300003970700BE8563490700B327E720B3E7A7
:10074000A720D447E354D6FE239015018318080050
:100750002310E800E3DE08FA83C76A00E38F07E0AE
:1007600023830A0003978A007D555A83E30CA7E48C
:1007700083A84A01B327E720BA86B3E7172103D637
:100780002700BA853A88131656600397070063431B
:1007900006023E83E305A7DEB327E720B3E7172170
:1007A00003D62700BA853A881316566003970700C8
:1007B000E35106FE80C7C4C7638AD5002310E30057
:1007C00083D68A002390D7002394BA00C286E3150B
:1007D000A7FC75B3E36995D9E3590CE203D70B0085
:1007E00083A70A012394EA007377043093963700B5
:1007F000B316D028F19B2FA6D744758E6DFE0F003F
:10080000300383D62A0083A70A012390DB002391BB
:10081000AA010F003003238007009377870073A09D
:10082000073091B39447E375D3F0239015018318F3
:1008300008002310E800E3DD08EC39BFE3107CD7A3
:100840008DBB054AD287814937890B40CDB14A8596
:100850003AC6312B3247B306B501B3B7A6002E977F
:10086000BA97EDB39C492E852EC6829725D9B245FD
:1008700083AD0500D8416DBB854737890B4045B92D
:10088000E3F116E305BD011122CC37040020130467
:10089000C4471C4806CE91CB6244F2403715002075
:1008A0001305C587A945056171B68D4537050B4010
:1008B00026CA4AC84EC652C45929370A0B408D442D
:1008C000232644013D3CB70700D02300940037178E
:1008D000002003A80700130747815C482A97B70642
:1008E000110018C87D56FD16BD450947A300040137
:1008F00014C42311B4002312C4002394E704214933
:10090000114F954E194E1D43A5482948B546394704
:1009100085492D45B14523909706239CE7072398E9
:10092000D7092394C70B2390670C2398170F2394A0
:1009300007112390A712239CB7122398D71423944E
:10094000E7162390C70023983703239C270D239C89
:100950000700B705001023202A03B71700202685BB
:100960009385C54E23A487869134CE852685213470
:10097000B7270B406244D244B249224AF24023A036
:1009800027054249371500201305C587A94505618C
:1009900055B4AA8708497378043093183500B31802
:1009A000102971992F23154533731301E31C03FE9E
:1009B0000F0030030393270083A8470113758800B5
:1009C000332863203368182183A80701634B030889
:1009D000035E08002391C7010F0030032380080045
:1009E0007320053083582800054E13150301F29833
:1009F000C60893D81801B3F8C80B232AE8002328A7
:100A0000D8002324B8002326C80023111801336519
:100A10001501984BF3760430131637003316C028AF
:100A2000719BAF25C744F18DEDFD0F00300303D658
:100A30004700984B2310C800239267000F00300333
:100A40002300070013F786007320073003C7070051
:100A5000DC478966938646043317E028B69798C327
:100A600082800F00300323800800732005307D55FD
:100A700082800357A50093D7054163D8E704544902
:100A8000B3A7F7201849B3E7D720F376043013163D
:100A900037003316C028719B2F28C7443378C8000D
:100AA000E31C08FE0F00300303D62700B3C505087A
:100AB00013F78600B3460608630BB6001C490F0007
:100AC000300323800700732007300145828093960E
:100AD000F6282391D70085472303F50014490F001A
:100AE00030032380060073200730834605005845F5
:100AF000096613064604B316D02832973E8514C300
:100B00008280011122CC26CA4EC6AA8406CE4AC8CB
:100B1000BD241307803E3384E402B7070080FD172D
:100B2000B3B4E402B309A40033B48900AE942694AC
:100B300063F487003E84FD599384A9FF33B93401DF
:100B40009307F4FF3E99636A240363068902052C28
:100B50003385A440B305B940B3B7A4009D8D634A63
:100B6000B002CDC9A2856244F240D24442494E85CA
:100B7000B249056131ACE3FC99FC1124814401497F
:100B80003385A440B305B940B3B7A4009D8DE35AA3
:100B9000B0FCF5223385A44033B5A400B305B940B9
:100BA000898D63C10502B7060010370500209386C2
:100BB000C64A1305C5470147A6854A86D93BFD5756
:100BC000E302F5FAB7060B4037160020DC5263E764
:100BD00027019856E37897F8E316F9F88327C68734
:100BE0007377043093953700B315B028F19B2FA588
:100BF000B7446D8D6DFD0F0030038327C6870F004E
:100C00003003238007009377870073A007303320D9
:100C100000006DBF21D9B5BF411122C426C206C64E
:100C2000AA842E84732750BE9317070163DA070442
:100C30004AC0370900209307C94703C70700DC47AC
:100C40003347F7209C57184BB306F5401D8F63EDD3
:100C5000E60433200000B7070B40D8530145636911
:100C6000B70A9C570D8F024933B597003337E00020
:100C700013351500598DB2402244924441018280BF
:100C8000B7070B40D8530145E367B7FE9C57B24006
:100C9000224433B597000D8F3337E000133515002C
:100CA0009244598D41018280D9283385A44033B5BF
:100CB000A400B305B440898D63C20506B7060010D1
:100CC000A6859386C64A014722861305C947D131B6
:100CD000AA856355A004B7070B40D853636A8704FD
:100CE0009C5763E597041305C947613337070B40E9
:100CF0005C53014563EE87001457818F3337F00052
:100D0000B3B7960093B7170002493365F700A5B74C
:100D1000B2402244024992444101828037070B408D
:100D20005C5363FA870002490145B1B7E31D87FAB6
:100D3000332000004DBF1857818FB337F000333791
:100D4000970013371700024933E5E7002DB7B7873F
:100D5000F4BFAA973715002093B71700130505882D
:100D6000372600103E95130686826FF02FD34C5124
:100D7000AA8788572E87CC53E31DB7FE8280B7071A
:100D80000B40CC5388572E87CC53E39DE5FE8280E1
:100D900037070B405C53E3EFB7FE639BF500B707E3
:100DA0000B4021A0D8536395E5009857E36CA7FE4C
:100DB00082800000B70701403327A5203347F72082
:100DC00003284700C1676373F8005CC31308C5FFBD
:100DD000854763F607073713002013034383B347A0
:100DE000652083A807008D67BA97131EB02823A03B
:100DF000C7010A056399080283280700160685675C
:100E0000334616011376060EBA9790C305466371F2
:100E100006078967BA971316B02890C31A95C16759
:100E200014C15CC3828083274301B3D717038507AE
:100E3000B3A7F7209387E7FFE3DE07FE75BFE39CC8
:100E4000F5F88D67BA970D4823A007011C47858BDD
:100E5000F5DF03280700160685673346060113767B
:100E6000060EBA97371300200A0590C31303438375
:100E7000032807003316B028B3C505018D898CC33C
:100E80001C47F18FF5DF71B7B717002093874783B1
:100E90003345F52008418280B727B700938707B014
:100EA000B3D7B70283280500C206320733E8E6004D
:100EB0003356F60263C40804B78705401167630020
:100EC000F506B727024098C3B7060240B73702407D
:100ED00098C3A1069C42B377F740EDFF0D670CC1A4
:100EE000110710C52A97930710021CC31C41E3DFAA
:100EF00007FE23260501A1471CC382801C4193F7EE
:100F0000F703E39BB7FA1C45D207D183E396C7FAF0
:100F10005C4537770700F98FE39007FB82802167F4
:100F20004DB7B78710403325A5203345F5204CC178
:100F300085471CC18280A1679387A7DF83D70700FD
:100F400085458287B7170E409387878298437DDF58
:100F50000F0030038280B7170E403E871307C78209
:100F60009387C7800F00300323A007009107E39BFE
:100F7000E7FE82808567938707AA378704401CC3F2
:100F80009307F0025CC7B7B6FA00B7A7044094C352
:100F90005C43E3DF07FE8280828037250010411129
:100FA0001305C58406C6EFF06FAB411122C426C2FB
:100FB00037140010B714001006C6930744569384E4
:100FC000C45963F99700130444561C4011048297D6
:100FD000E36D94FEB2402244924441018280B747BF
:100FE000EFEF9387F7B7B72602403707F4039CC2A9
:100FF0005917B7370240B706024098C3A1069C4272
:10100000B377F740EDFF8280B7071150F847A1672B
:101010006303F7008280B727115037070400F8C731
:101020008280370700207D17B7370240B70602409D
:1010300098C3A1069C42B377F740EDFF8280156507
:1010400041111305352506C6FD35B240AA87114565
:1010500041018287156541111305352506C6E13D1D
:10106000B240AA870545410182876FF06FAB4111FD
:1010700022C406C626C24AC03704014023220408FF
:10108000D53DB73701400547D8DF7C40E39FE7FEF9
:101090000D47B737014098DB0544370701401C5F17
:1010A000E39F87FE37366859A285130606F0094785
:1010B000954637050540CD33154737968647BA869E
:1010C000A285130606C037850540F933B726B70059
:1010D000938606B0014689451145E939B7D6F0082F
:1010E000A2859386061801461545E931B776DC02DC
:1010F000938606C00146814521456D39B776DC02ED
:10110000938606C00146814525456D31B7D6F00866
:10111000938606180146814519456939B7D6F00806
:1011200093860618014681451D4569311145A93B45
:10113000B7E71B43938737E8B334F50201441949F5
:10114000C9802285A6850504E93BE31C24FFB24043
:101150002244924402494101828011E1828061A4CB
:10116000B717002083A74788011106CE91CFAA8622
:10117000371500102E871305A5156C007D56829734
:10118000F2400545056182800126F2400145056176
:1011900082800D45731025BE7D15E35D05FE056556
:1011A00013050580731045307360043073100034EC
:1011B00082800290FDBF411106C6E53F411122C465
:1011C00026C206C637140010CD33B714001093079B
:1011D000C4599384445A63F997001304C4591C40BA
:1011E00011048297E36D94FEB2402244924441017F
:1011F00082801C412E85B28582878347550101116B
:1012000026CA4EC652C406CEAA892E8AB284E9C71F
:101210006358C00403C70500A9476309F7060547DB
:1012200081476385E40422CC4AC856C213091A00D8
:101230000544A94A03470900A28605046306570727
:101240000509E39984FE62444249924A63C09702C9
:10125000269A8347FAFFCD1793B71700238AF90020
:10126000F240D244B249224A0561828003A70900B4
:101270003305FA00B385F4400297269A8347FAFFB4
:10128000CD1793B71700238AF900D9BF83474501CB
:10129000D9F71C4137250010130505908945829721
:1012A0008547E392F4F86DB70346F9FF3547E30944
:1012B000E6F8B385F6403305FA0063D5D70083A777
:1012C0000900829783A709003725001013050590B0
:1012D00089458297A287ADB71C41F240D244B249FA
:1012E0005285224AB28505618287397122DC26DA6D
:1012F0004AD84ED606DEB28952D456D25AD02A895E
:10130000AE843684AD3CB7470F0093870724AA9775
:1013100033B5A700370700803306B5007D17BE85BB
:101320006374C7003A86FD55B70A00201385CA6664
:1013300097F0FF0FE78000D6FD572A8B6381F40AF0
:1013400039C4371A0010130AAA1F03A401811DC053
:101350006394090419A0004811CC1C402686CA8554
:101360002285F5DB83A7C18099C3E316F4FE029AB8
:10137000004865F4631E0B04F25062544259B2599E
:10138000225A925A025B2685D25421618280371AF2
:101390000010130A2A1F55BF5ECEA94B19A00048A2
:1013A0000DC41C402686CA852285F5DB83A7C18033
:1013B00099C3E39687FE029A22859305F1000546BC
:1013C000A3077101029A004869FCF24BE3060BFA8D
:1013D0001385CA6697F0FF0FE78060D271BF4A8518
:1013E000392AAA84B1BF797126D206D622D44ECE2C
:1013F00052CCAA84A307A1005932B7470F009387A4
:101400000724AA9733B6A700370700802E967D17CA
:10141000BE856374C7003A86FD55370A0020130560
:10142000CA6697F0FF0FE780E0C603A40181AA898E
:1014300005C44AD019A0004819CC1C4005469305A4
:10144000F1002285EDDB83A7C18099C3E315F4FE8B
:101450006D3300487DF00259639A0900B25022545E
:10146000F249624A26859254456182801305CA6614
:1014700097F0FF0FE780A0C8B2502254F249624AA9
:101480002685925445618280411106C622C426C237
:101490002A84B520AA8485462285A6853686B1355C
:1014A00003A4018111C45C4091CB8297004865FC84
:1014B000B24022442685924441018280004865F46E
:1014C000B2402244268592444101828015653971DB
:1014D0001305753406DE8534AA8705466800A545E0
:1014E0008297D24762471386418193D787695CC24E
:1014F000F2501357876923AAE18021618280937794
:1015000035002A879DEFB7867F7F9386F6F7FD55D6
:1015100010431107B377D600B697D18FD58FE389E3
:10152000B7FE8346C7FFB307A7408DCA8346D7FFE0
:101530009DC20345E7FF3335A0003E9579158280B3
:10154000F9D283470700050793763700F5FB098F2B
:101550001305F7FF82801385D7FF82801385C7FFAD
:10156000828000003E100010DE0F001008100010F6
:101570006E10001022100010560F00106A1000109C
:10158000440F00104204001086080010980F00104D
:101590005410001092110010420300100A010010B4
:0415A000CC14001057
:1015A4000C0000000C0000000C0000000C00000007
:1015B4000C0000000C0000000C0000000C000000F7
:1015C4000C0000000C0000000C0000000C000000E7
:1015D4000C0000000C0000000C0000000C000000D7
:1015E4000C0000000C0000000C0000000C000000C7
:1015F4000C0000000C0000000C0000000C000000B7
:101604000C0000000C0000000C0000000C000000A6
:101614000C0000000C0000000C0000000C00000096
:101624000900000009000000090000000C0000008F
:101634000C0000000C0000000C0000000C00000076
:101644000C0000000C0000000C0000000C00000066
:101654000C0000000C0000000C0000000C00000056
:101664000C0000000C0000000C0000000C00000046
:101674000C0000000C0000000C0000000C00000036
:101684000C0000000C0000000C0000000C00000026
:101694000C0000000C0000000C0000000900000019
:1016A40009000000090000000C0000000C0000000C
:1016B4000C0000000C0000000C0000000C000000F6
:1016C4000C0000000C0000000C0000000C000000E6
:1016D4000C0000000C0000004D0A00004D0A000040
:1016E400000000004D0A0000000000002D0800006A
:1016F4004D0A000000000000400C00000000000043
:1017040000000000000000002006000000000000AF
:1017140000000000000000002D0800000000000090
:10172400000000002006000000000000000000008F
:10173400270500000000000000000000E006000093
:1017440000000000B8070000000000004907000086
:10175400E006000000000000200600004D0A000022
:10176400400C0000C00D000000000000EA0A000068
:10177400400C0000000000004D0A000000000000C2
:101784002D0800002D090000B8070000000000002B
:10179400000000002D080000000000000000000010
:1017A40020060000000000000000000027050000E3
:1017B4000000000000000000E0060000000000003F
:1017C400B80700000000000049070000E006000020
:1017D40000000000200600004D0A0000400C00003C
:1017E400C00D000000000000EA0A0000400C0000E8
:1017F400000000004D0A0000000000002D08000059
:101804002D090000B80700000000000000000000DF
:101814000A2A2A2A2050414E4943202A2A2A0A0009
:101824000A000000486172647761726520616C612E
:10183400726D20256420616C726561647920636C2B
:1018440061696D65640000004861726420617373AE
:101854006572740052656C6561736500626F6F74C4
:10186400325F77323571303830000000302E31006D
:10187400322E312E300000007069636F3200000098
:10188400736F6E69632D736F6E6700004465632028
:10189400313020323032340006005250D3F07542D9
:1018A4005818001006005250E182887F601800101A
:1018B400060052503ABCA91170180010060052508C
:1018C400ABB360537418001006005250BBFF3CB613
:1018D4007C18001006005250861C03028418001065
:1018E400060052505422A29D901800100500525038
:1018F400DE65F468AC1F0010286BEE4B0D0A000087
:101904009C180010A8180010B4180010C01800107B
:10191400CC180010D8180010E4180010F0180010AB
:101924000111B70700D022CC26CA4AC84EC606CE3B
:1019340083A907002A842E89B28431A80F003003BA
:101944002300070073A007304A85A685971000F08E
:10195400E780C0BE31E51C407377043093963700AE
:10196400B316D028F19B2FA6D744758E6DFE0F00B9
:10197400300383064400937787001840E3D006FCC5
:10198400230234010F0030032300070073A0073043
:10199400F2406244D2444249B2490545056182801D
:1019A400F2406244D2444249B24901450561828011
:1019B4001C41F37604301398370033180029F19B47
:1019C400AFA80745B3F80801E39C08FE0F003003F5
:1019D4000308450093F786001441634208020F0090
:1019E40030032380060073A00730B70700D00387B5
:1019F40007008147631407013E85828015B73706C7
:101A040000D010422302C5000F00300323800600DB
:101A140073A0073085473E8582801C41737704306C
:101A240093963700B316D028F19B2FA6D744758E12
:101A34006DFE0F003003FD572302F5001C410F001B
:101A44003003238007009377870073A00730332087
:101A540010008280935675011313950093F6F60FC8
:101A6400135393007D81ADC29307F00F638AF6068A
:101A74000E031313A329938616F8014E13D7750189
:101A8400939795001377F70FA583FD8135C313064C
:101A9400F00F630AC7068E079397A729130717F851
:101AA4000146B388E64013172E00518F7D17B946BF
:101AB4003348B50063E0E606B70600209386064483
:101AC4003347D72018430287630103029317036047
:101AD4001387B7FF9306A0F83313E3009D8E71BFFD
:101AE400094EE30D03F80D4E51BF8146054E79B7FB
:101AF40099CF139607601307B6FFB397E700130750
:101B0400A0F8118F71BF0946C9DF0D4659BF0147BF
:101B1400054641BF939657006372F30CFD180147C5
:101B240093D50601335EB30233C60608418333738B
:101B3400B302F2873305C603420333676700637C4D
:101B4400A70036979307FEFF6367D7006375A70066
:101B54009307EEFF3697098F3355B7023377B702F1
:101B6400AA853306A60242076371C7023303D7006E
:101B7400333EE3009305F5FF1A8763180E0063767E
:101B8400C3009305E5FF3307D300C207118FCD8F40
:101B94003337E000D98F9386F8076357D00613F7DD
:101BA400770019C713F7F70011466303C700B2970C
:101BB40013974700635607009397B749938608081D
:101BC4001307E00F634BD70813D737002607258385
:101BD400DE06D98E1315F801558D82801317F30193
:101BE4001353130035BF2E8809476308E6060D47D3
:101BF400630FE6040547E310E6FA01478146F9B7A7
:101C04002A889A877286CDB7054699C6158EED4502
:101C140001478146E3CCC5FA9386E80933D6C70069
:101C2400B397D700B337F0003367F60093777700A4
:101C340099C79377F70091466383D7003697931734
:101C440057000D83E3DC07FA0147854641B73707A0
:101C540040009306F00F014895BF01479306F00F2B
:101C6400B5B7935775019316950093F7F70F1306BD
:101C7400E007A5821357F501635FF6021306F00926
:101C8400198E1305F7FF63D9C702014515E713E55C
:101C9400060013075009131575296357F700938736
:101CA400A7F63315F500828013076009B307F740E0
:101CB4003355F50082800145828049CDB307A040A9
:101CC400B367F50A1356F501939607601305E00907
:101CD400158D13076009634FA700A145638FB606EE
:101CE400E116B397D700A607A5835E055D8D7E0632
:101CF400518D8280130790096357A7041387B60197
:101D040095453397E700958D3337E000B3D7B70097
:101D14005D8F9377F7FF937577009397A7498DC9E4
:101D24003D8B91456306B702AE979395570013D741
:101D3400370063DF0500B707801F1305F009FD179F
:101D4400158DF98F4DB71387B6FF3397E700D1B7D9
:101D54008D8351BF0146814779B73A8569B7000041
:101D64003A030020DA020020C6020020DA02002032
:101D74002E030020DA020020C60200203A030020CD
:101D84003A0300202E030020C6020020E0020020B7
:101D9400E0020020E00200202E03002000000000EA
:101DA400000000000000000000000000000000002F
:101DB4007806002000000000000000000000000081
:101DC400000000000000000000000000000000000F
:101DD40000000000000000000000000000000000FF
:101DE4006F00001A00000000000000006F0060197E
:101DF4000000000000000000000000006F00401818
:101E04000000000000000000000000005D7106C03A
:101E140016C21AC41EC62AC82ECA32CC36CE3AD02E
:101E24003ED242D446D672D876DA7ADC7EDE732588
:101E34001034F3250030AAC0AEC2736651BEB2C4DA
:101E440073E540BE6341050273600430B7050020AA
:101E5400AA9583A50559E78005007370043073E5DE
:101E640040BEE35305FE06459645264673101534D9
:101E740073900530731056BE824092422243B2439F
:101E8400D2456246F246025792572258B258425EF1
:101E9400D25E625FF25F732540BEE35005FA4245AD
:101EA40061617300203000000000000000000000A9
:101EB40064060020640600206406002064060020F6
:101EC40064060020640600206406002064060020E6
:101ED40064060020640600206406002064060020D6
:101EE40064060020640600206406002064060020C6
:101EF40064060020640600206406002064060020B6
:101F040064060020640600206406002064060020A5
:101F14006406002064060020640600206406002095
:101F24006406002064060020640600206406002085
:101F34006406002064060020640600206406002075
:101F44006406002064060020640600206406002065
:101F54006406002064060020640600206406002055
:101F64006406002064060020640600206406002045
:101F74006406002064060020640600206406002035
:101F840002900290098102901000000000000000FD
:041F94000000000049
:101F9800D3DEFFFFFE010000FF0100007CE0FFFF31
:041FA800793512ABCA
:0400000510000034B3
:00000001FF
